{"abi":[{"type":"constructor","inputs":[{"name":"_vrfCoordinator","type":"address","internalType":"address"},{"name":"_subscriptionId","type":"uint256","internalType":"uint256"},{"name":"_keyHash","type":"bytes32","internalType":"bytes32"}],"stateMutability":"nonpayable"},{"type":"receive","stateMutability":"payable"},{"type":"function","name":"acceptOwnership","inputs":[],"outputs":[],"stateMutability":"nonpayable"},{"type":"function","name":"addSupportedToken","inputs":[{"name":"token","type":"address","internalType":"address"}],"outputs":[],"stateMutability":"nonpayable"},{"type":"function","name":"approve","inputs":[{"name":"to","type":"address","internalType":"address"},{"name":"tokenId","type":"uint256","internalType":"uint256"}],"outputs":[],"stateMutability":"nonpayable"},{"type":"function","name":"balanceOf","inputs":[{"name":"owner","type":"address","internalType":"address"}],"outputs":[{"name":"","type":"uint256","internalType":"uint256"}],"stateMutability":"view"},{"type":"function","name":"betDice","inputs":[{"name":"chosenNumber","type":"uint8","internalType":"uint8"},{"name":"multiplier","type":"uint8","internalType":"uint8"},{"name":"token","type":"address","internalType":"address"},{"name":"amount","type":"uint256","internalType":"uint256"}],"outputs":[{"name":"requestId","type":"uint256","internalType":"uint256"}],"stateMutability":"payable"},{"type":"function","name":"betPoker","inputs":[{"name":"handChoice","type":"uint8","internalType":"uint8"},{"name":"token","type":"address","internalType":"address"},{"name":"amount","type":"uint256","internalType":"uint256"}],"outputs":[{"name":"requestId","type":"uint256","internalType":"uint256"}],"stateMutability":"payable"},{"type":"function","name":"callbackGasLimit","inputs":[],"outputs":[{"name":"","type":"uint32","internalType":"uint32"}],"stateMutability":"view"},{"type":"function","name":"claimReferralRewards","inputs":[],"outputs":[],"stateMutability":"nonpayable"},{"type":"function","name":"diceBets","inputs":[{"name":"","type":"uint256","internalType":"uint256"}],"outputs":[{"name":"player","type":"address","internalType":"address"},{"name":"amount","type":"uint256","internalType":"uint256"},{"name":"token","type":"address","internalType":"address"},{"name":"chosenNumber","type":"uint8","internalType":"uint8"},{"name":"multiplier","type":"uint8","internalType":"uint8"},{"name":"settled","type":"bool","internalType":"bool"},{"name":"result","type":"uint8","internalType":"uint8"},{"name":"payout","type":"uint256","internalType":"uint256"}],"stateMutability":"view"},{"type":"function","name":"fundRewardPool","inputs":[],"outputs":[],"stateMutability":"payable"},{"type":"function","name":"getAchievements","inputs":[{"name":"player","type":"address","internalType":"address"}],"outputs":[{"name":"","type":"uint256[]","internalType":"uint256[]"}],"stateMutability":"view"},{"type":"function","name":"getApproved","inputs":[{"name":"tokenId","type":"uint256","internalType":"uint256"}],"outputs":[{"name":"","type":"address","internalType":"address"}],"stateMutability":"view"},{"type":"function","name":"getDiceResult","inputs":[{"name":"requestId","type":"uint256","internalType":"uint256"}],"outputs":[{"name":"result","type":"uint8","internalType":"uint8"},{"name":"payout","type":"uint256","internalType":"uint256"},{"name":"win","type":"bool","internalType":"bool"}],"stateMutability":"view"},{"type":"function","name":"getFullPokerBet","inputs":[{"name":"requestId","type":"uint256","internalType":"uint256"}],"outputs":[{"name":"","type":"tuple","internalType":"struct GameCore.PokerBet","components":[{"name":"player","type":"address","internalType":"address"},{"name":"amount","type":"uint256","internalType":"uint256"},{"name":"token","type":"address","internalType":"address"},{"name":"settled","type":"bool","internalType":"bool"},{"name":"playerCards","type":"uint8[3]","internalType":"uint8[3]"},{"name":"dealerCards","type":"uint8[3]","internalType":"uint8[3]"},{"name":"playerHandRank","type":"uint8","internalType":"uint8"},{"name":"dealerHandRank","type":"uint8","internalType":"uint8"},{"name":"payout","type":"uint256","internalType":"uint256"}]}],"stateMutability":"view"},{"type":"function","name":"getGameConfig","inputs":[],"outputs":[{"name":"","type":"uint256","internalType":"uint256"},{"name":"","type":"uint256","internalType":"uint256"},{"name":"","type":"uint256","internalType":"uint256"},{"name":"","type":"uint256","internalType":"uint256"}],"stateMutability":"view"},{"type":"function","name":"getPlayerStats","inputs":[{"name":"player","type":"address","internalType":"address"}],"outputs":[{"name":"","type":"uint256","internalType":"uint256"},{"name":"","type":"uint256","internalType":"uint256"},{"name":"","type":"uint256","internalType":"uint256"},{"name":"","type":"address","internalType":"address"}],"stateMutability":"view"},{"type":"function","name":"getPokerResult","inputs":[{"name":"requestId","type":"uint256","internalType":"uint256"}],"outputs":[{"name":"playerHand","type":"uint8","internalType":"uint8"},{"name":"dealerHand","type":"uint8","internalType":"uint8"},{"name":"payout","type":"uint256","internalType":"uint256"},{"name":"win","type":"bool","internalType":"bool"}],"stateMutability":"view"},{"type":"function","name":"getSupportedTokens","inputs":[],"outputs":[{"name":"","type":"address[]","internalType":"address[]"}],"stateMutability":"view"},{"type":"function","name":"getTokenInfo","inputs":[{"name":"token","type":"address","internalType":"address"}],"outputs":[{"name":"symbol","type":"string","internalType":"string"},{"name":"decimals","type":"uint8","internalType":"uint8"},{"name":"enabled","type":"bool","internalType":"bool"}],"stateMutability":"view"},{"type":"function","name":"hasDiceAchievement","inputs":[{"name":"","type":"address","internalType":"address"}],"outputs":[{"name":"","type":"bool","internalType":"bool"}],"stateMutability":"view"},{"type":"function","name":"hasPokerAchievement","inputs":[{"name":"","type":"address","internalType":"address"}],"outputs":[{"name":"","type":"bool","internalType":"bool"}],"stateMutability":"view"},{"type":"function","name":"houseEdgeBps","inputs":[],"outputs":[{"name":"","type":"uint256","internalType":"uint256"}],"stateMutability":"view"},{"type":"function","name":"isApprovedForAll","inputs":[{"name":"owner","type":"address","internalType":"address"},{"name":"operator","type":"address","internalType":"address"}],"outputs":[{"name":"","type":"bool","internalType":"bool"}],"stateMutability":"view"},{"type":"function","name":"isDiceRequest","inputs":[{"name":"","type":"uint256","internalType":"uint256"}],"outputs":[{"name":"","type":"bool","internalType":"bool"}],"stateMutability":"view"},{"type":"function","name":"isTokenSupported","inputs":[{"name":"","type":"address","internalType":"address"}],"outputs":[{"name":"","type":"bool","internalType":"bool"}],"stateMutability":"view"},{"type":"function","name":"keyHash","inputs":[],"outputs":[{"name":"","type":"bytes32","internalType":"bytes32"}],"stateMutability":"view"},{"type":"function","name":"maxBet","inputs":[],"outputs":[{"name":"","type":"uint256","internalType":"uint256"}],"stateMutability":"view"},{"type":"function","name":"minBet","inputs":[],"outputs":[{"name":"","type":"uint256","internalType":"uint256"}],"stateMutability":"view"},{"type":"function","name":"name","inputs":[],"outputs":[{"name":"","type":"string","internalType":"string"}],"stateMutability":"view"},{"type":"function","name":"owner","inputs":[],"outputs":[{"name":"","type":"address","internalType":"address"}],"stateMutability":"view"},{"type":"function","name":"ownerOf","inputs":[{"name":"tokenId","type":"uint256","internalType":"uint256"}],"outputs":[{"name":"","type":"address","internalType":"address"}],"stateMutability":"view"},{"type":"function","name":"playerTotalBets","inputs":[{"name":"","type":"address","internalType":"address"}],"outputs":[{"name":"","type":"uint256","internalType":"uint256"}],"stateMutability":"view"},{"type":"function","name":"playerTotalPayout","inputs":[{"name":"","type":"address","internalType":"address"}],"outputs":[{"name":"","type":"uint256","internalType":"uint256"}],"stateMutability":"view"},{"type":"function","name":"playerWins","inputs":[{"name":"","type":"address","internalType":"address"}],"outputs":[{"name":"","type":"uint256","internalType":"uint256"}],"stateMutability":"view"},{"type":"function","name":"pokerBets","inputs":[{"name":"","type":"uint256","internalType":"uint256"}],"outputs":[{"name":"player","type":"address","internalType":"address"},{"name":"amount","type":"uint256","internalType":"uint256"},{"name":"token","type":"address","internalType":"address"},{"name":"settled","type":"bool","internalType":"bool"},{"name":"playerHandRank","type":"uint8","internalType":"uint8"},{"name":"dealerHandRank","type":"uint8","internalType":"uint8"},{"name":"payout","type":"uint256","internalType":"uint256"}],"stateMutability":"view"},{"type":"function","name":"rawFulfillRandomWords","inputs":[{"name":"requestId","type":"uint256","internalType":"uint256"},{"name":"randomWords","type":"uint256[]","internalType":"uint256[]"}],"outputs":[],"stateMutability":"nonpayable"},{"type":"function","name":"referralRewards","inputs":[{"name":"","type":"address","internalType":"address"},{"name":"","type":"address","internalType":"address"}],"outputs":[{"name":"","type":"uint256","internalType":"uint256"}],"stateMutability":"view"},{"type":"function","name":"referrers","inputs":[{"name":"","type":"address","internalType":"address"}],"outputs":[{"name":"","type":"address","internalType":"address"}],"stateMutability":"view"},{"type":"function","name":"requestConfirmations","inputs":[],"outputs":[{"name":"","type":"uint16","internalType":"uint16"}],"stateMutability":"view"},{"type":"function","name":"rewardPool","inputs":[],"outputs":[{"name":"","type":"uint256","internalType":"uint256"}],"stateMutability":"view"},{"type":"function","name":"s_vrfCoordinator","inputs":[],"outputs":[{"name":"","type":"address","internalType":"contract IVRFCoordinatorV2Plus"}],"stateMutability":"view"},{"type":"function","name":"safeTransferFrom","inputs":[{"name":"from","type":"address","internalType":"address"},{"name":"to","type":"address","internalType":"address"},{"name":"tokenId","type":"uint256","internalType":"uint256"}],"outputs":[],"stateMutability":"nonpayable"},{"type":"function","name":"safeTransferFrom","inputs":[{"name":"from","type":"address","internalType":"address"},{"name":"to","type":"address","internalType":"address"},{"name":"tokenId","type":"uint256","internalType":"uint256"},{"name":"data","type":"bytes","internalType":"bytes"}],"outputs":[],"stateMutability":"nonpayable"},{"type":"function","name":"setApprovalForAll","inputs":[{"name":"operator","type":"address","internalType":"address"},{"name":"approved","type":"bool","internalType":"bool"}],"outputs":[],"stateMutability":"nonpayable"},{"type":"function","name":"setCoordinator","inputs":[{"name":"_vrfCoordinator","type":"address","internalType":"address"}],"outputs":[],"stateMutability":"nonpayable"},{"type":"function","name":"setGameConfig","inputs":[{"name":"_houseEdgeBps","type":"uint256","internalType":"uint256"},{"name":"_minBet","type":"uint256","internalType":"uint256"},{"name":"_maxBet","type":"uint256","internalType":"uint256"}],"outputs":[],"stateMutability":"nonpayable"},{"type":"function","name":"setReferrer","inputs":[{"name":"referrer","type":"address","internalType":"address"}],"outputs":[],"stateMutability":"nonpayable"},{"type":"function","name":"subscriptionId","inputs":[],"outputs":[{"name":"","type":"uint256","internalType":"uint256"}],"stateMutability":"view"},{"type":"function","name":"supportedTokens","inputs":[{"name":"","type":"uint256","internalType":"uint256"}],"outputs":[{"name":"","type":"address","internalType":"address"}],"stateMutability":"view"},{"type":"function","name":"supportsInterface","inputs":[{"name":"interfaceId","type":"bytes4","internalType":"bytes4"}],"outputs":[{"name":"","type":"bool","internalType":"bool"}],"stateMutability":"view"},{"type":"function","name":"symbol","inputs":[],"outputs":[{"name":"","type":"string","internalType":"string"}],"stateMutability":"view"},{"type":"function","name":"tokenURI","inputs":[{"name":"tokenId","type":"uint256","internalType":"uint256"}],"outputs":[{"name":"","type":"string","internalType":"string"}],"stateMutability":"view"},{"type":"function","name":"transferFrom","inputs":[{"name":"from","type":"address","internalType":"address"},{"name":"to","type":"address","internalType":"address"},{"name":"tokenId","type":"uint256","internalType":"uint256"}],"outputs":[],"stateMutability":"nonpayable"},{"type":"function","name":"transferOwnership","inputs":[{"name":"to","type":"address","internalType":"address"}],"outputs":[],"stateMutability":"nonpayable"},{"type":"event","name":"AchievementMinted","inputs":[{"name":"player","type":"address","indexed":true,"internalType":"address"},{"name":"achievementId","type":"uint256","indexed":false,"internalType":"uint256"},{"name":"tokenId","type":"uint256","indexed":false,"internalType":"uint256"}],"anonymous":false},{"type":"event","name":"Approval","inputs":[{"name":"owner","type":"address","indexed":true,"internalType":"address"},{"name":"approved","type":"address","indexed":true,"internalType":"address"},{"name":"tokenId","type":"uint256","indexed":true,"internalType":"uint256"}],"anonymous":false},{"type":"event","name":"ApprovalForAll","inputs":[{"name":"owner","type":"address","indexed":true,"internalType":"address"},{"name":"operator","type":"address","indexed":true,"internalType":"address"},{"name":"approved","type":"bool","indexed":false,"internalType":"bool"}],"anonymous":false},{"type":"event","name":"CoordinatorSet","inputs":[{"name":"vrfCoordinator","type":"address","indexed":false,"internalType":"address"}],"anonymous":false},{"type":"event","name":"DiceBetPlaced","inputs":[{"name":"requestId","type":"uint256","indexed":true,"internalType":"uint256"},{"name":"player","type":"address","indexed":true,"internalType":"address"},{"name":"amount","type":"uint256","indexed":false,"internalType":"uint256"},{"name":"token","type":"address","indexed":false,"internalType":"address"},{"name":"chosenNumber","type":"uint8","indexed":false,"internalType":"uint8"},{"name":"multiplier","type":"uint8","indexed":false,"internalType":"uint8"}],"anonymous":false},{"type":"event","name":"DiceBetSettled","inputs":[{"name":"requestId","type":"uint256","indexed":true,"internalType":"uint256"},{"name":"result","type":"uint8","indexed":false,"internalType":"uint8"},{"name":"payout","type":"uint256","indexed":false,"internalType":"uint256"},{"name":"win","type":"bool","indexed":false,"internalType":"bool"}],"anonymous":false},{"type":"event","name":"OwnershipTransferRequested","inputs":[{"name":"from","type":"address","indexed":true,"internalType":"address"},{"name":"to","type":"address","indexed":true,"internalType":"address"}],"anonymous":false},{"type":"event","name":"OwnershipTransferred","inputs":[{"name":"from","type":"address","indexed":true,"internalType":"address"},{"name":"to","type":"address","indexed":true,"internalType":"address"}],"anonymous":false},{"type":"event","name":"PokerBetPlaced","inputs":[{"name":"requestId","type":"uint256","indexed":true,"internalType":"uint256"},{"name":"player","type":"address","indexed":true,"internalType":"address"},{"name":"amount","type":"uint256","indexed":false,"internalType":"uint256"},{"name":"token","type":"address","indexed":false,"internalType":"address"},{"name":"handChoice","type":"uint8","indexed":false,"internalType":"uint8"}],"anonymous":false},{"type":"event","name":"PokerBetSettled","inputs":[{"name":"requestId","type":"uint256","indexed":true,"internalType":"uint256"},{"name":"playerHand","type":"uint8","indexed":false,"internalType":"uint8"},{"name":"dealerHand","type":"uint8","indexed":false,"internalType":"uint8"},{"name":"payout","type":"uint256","indexed":false,"internalType":"uint256"},{"name":"win","type":"bool","indexed":false,"internalType":"bool"}],"anonymous":false},{"type":"event","name":"ReferralRewardPaid","inputs":[{"name":"player","type":"address","indexed":true,"internalType":"address"},{"name":"amount","type":"uint256","indexed":false,"internalType":"uint256"},{"name":"token","type":"address","indexed":false,"internalType":"address"}],"anonymous":false},{"type":"event","name":"Transfer","inputs":[{"name":"from","type":"address","indexed":true,"internalType":"address"},{"name":"to","type":"address","indexed":true,"internalType":"address"},{"name":"tokenId","type":"uint256","indexed":true,"internalType":"uint256"}],"anonymous":false},{"type":"error","name":"ERC721IncorrectOwner","inputs":[{"name":"sender","type":"address","internalType":"address"},{"name":"tokenId","type":"uint256","internalType":"uint256"},{"name":"owner","type":"address","internalType":"address"}]},{"type":"error","name":"ERC721InsufficientApproval","inputs":[{"name":"operator","type":"address","internalType":"address"},{"name":"tokenId","type":"uint256","internalType":"uint256"}]},{"type":"error","name":"ERC721InvalidApprover","inputs":[{"name":"approver","type":"address","internalType":"address"}]},{"type":"error","name":"ERC721InvalidOperator","inputs":[{"name":"operator","type":"address","internalType":"address"}]},{"type":"error","name":"ERC721InvalidOwner","inputs":[{"name":"owner","type":"address","internalType":"address"}]},{"type":"error","name":"ERC721InvalidReceiver","inputs":[{"name":"receiver","type":"address","internalType":"address"}]},{"type":"error","name":"ERC721InvalidSender","inputs":[{"name":"sender","type":"address","internalType":"address"}]},{"type":"error","name":"ERC721NonexistentToken","inputs":[{"name":"tokenId","type":"uint256","internalType":"uint256"}]},{"type":"error","name":"OnlyCoordinatorCanFulfill","inputs":[{"name":"have","type":"address","internalType":"address"},{"name":"want","type":"address","internalType":"address"}]},{"type":"error","name":"OnlyOwnerOrCoordinator","inputs":[{"name":"have","type":"address","internalType":"address"},{"name":"owner","type":"address","internalType":"address"},{"name":"coordinator","type":"address","internalType":"address"}]},{"type":"error","name":"ReentrancyGuardReentrantCall","inputs":[]},{"type":"error","name":"ZeroAddress","inputs":[]}],"bytecode":{"object":"0x608060405260c860095566038d7ea4c68000600a55670de0b6b3a7640000600b55600f805465ffffffffffff191664030007a1201790556001601755348015610046575f5ffd5b50604051614716380380614716833981016040819052610065916102f5565b604080518082018252601081526f47616d65416368696576656d656e747360801b6020808301919091528251808401909352600483526308e8286960e31b90830152908433805f816100fe5760405162461bcd60e51b815260206004820152601860248201527f43616e6e6f7420736574206f776e657220746f207a65726f000000000000000060448201526064015b60405180910390fd5b5f80546001600160a01b0319166001600160a01b038481169190911790915581161561012d5761012d81610229565b5050506001600160a01b0381166101575760405163d92e233d60e01b815260040160405180910390fd5b600280546001600160a01b0319166001600160a01b0392909216919091179055600361018383826103cc565b50600461019082826103cc565b50505060016101a96101a66102d160201b60201c565b90565b55600d91909155600e55506010805460018181019092557f1b6847dc741a1b0cd08d278845f9d819d87b734759afb55fe2de5cb82a9ae6720180546001600160a01b03191690555f805260116020527f4ad3b33220dddc71b994a52d72c06b10862965f7d926534c05c00fb7e819e7b7805460ff19169091179055610486565b336001600160a01b038216036102815760405162461bcd60e51b815260206004820152601760248201527f43616e6e6f74207472616e7366657220746f2073656c6600000000000000000060448201526064016100f5565b600180546001600160a01b0319166001600160a01b038381169182179092555f8054604051929316917fed8889f560326eb138920d842192f0eb3dd22b4f139c87a2c57538e05bae12789190a350565b7f9b779b17422d0df92223018b32b4d1fa46e071723d6817e2486d003becc55f0090565b5f5f5f60608486031215610307575f5ffd5b83516001600160a01b038116811461031d575f5ffd5b602085015160409095015190969495509392505050565b634e487b7160e01b5f52604160045260245ffd5b600181811c9082168061035c57607f821691505b60208210810361037a57634e487b7160e01b5f52602260045260245ffd5b50919050565b601f8211156103c757805f5260205f20601f840160051c810160208510156103a55750805b601f840160051c820191505b818110156103c4575f81556001016103b1565b50505b505050565b81516001600160401b038111156103e5576103e5610334565b6103f9816103f38454610348565b84610380565b6020601f82116001811461042b575f83156104145750848201515b5f19600385901b1c1916600184901b1784556103c4565b5f84815260208120601f198516915b8281101561045a578785015182556020948501946001909201910161043a565b508482101561047757868401515f19600387901b60f8161c191681555b50505050600190811b01905550565b614283806104935f395ff3fe608060405260043610610329575f3560e01c80634fd66eae116101a35780639619367d116100f2578063c625562611610092578063e0b9cb481161006d578063e0b9cb4814610bc6578063e3f60a6714610bf1578063e985e9c514610c31578063f2fde38b14610c50575f5ffd5b8063c625562614610b67578063c87b56dd14610b86578063d3c7c2c714610ba5575f5ffd5b8063a22cb465116100cd578063a22cb46514610a3d578063a3dd4a2214610a5c578063b0fb162f14610b13578063b88d4fde14610b48575f5ffd5b80639619367d146109ea5780639eccacf6146109ff578063a18a7bfc14610a1e575f5ffd5b806375151b631161015d5780638da5cb5b116101385780638da5cb5b1461096f5780638ea981171461098b5780638ef578f6146109aa57806395d89b41146109d6575f5ffd5b806375151b631461090257806379ba5097146109305780638b31fb8914610944575f5ffd5b80634fd66eae146107f657806361728f391461087b5780636352211e1461089057806366666aa9146108af5780636d69fcaf146108c457806370a08231146108e3575f5ffd5b80631fe543e31161027957806333a1f55e1161021957806342842e0e116101f457806342842e0e1461073f578063448c0a061461075e5780634a3b68cc1461078c5780634c63c518146107c0575f5ffd5b806333a1f55e146106185780633e6694f31461064657806342258eca14610674575f5ffd5b806322f191721161025457806322f191721461057b57806323b872dd146105b357806324f74697146105d25780632e5b216814610603575f5ffd5b80631fe543e314610535578063208283391461055457806320f5ab971461055c575f5ffd5b806309c1ba2e116102e457806315cd8408116102bf57806315cd8408146104b657806317803c8b146104c95780631936fd43146104dc5780631f69565f14610507575f5ffd5b806309c1ba2e1461042f5780630ceaa42414610444578063110e277d14610470575f5ffd5b80629984211461034b57806301ffc9a71461037357806305eaab4b146103a257806306fdde03146103b8578063081812fc146103d9578063095ea7b314610410575f5ffd5b366103475734600c5f82825461033f9190613a9f565b925050819055005b5f5ffd5b348015610356575f5ffd5b5061036060095481565b6040519081526020015b60405180910390f35b34801561037e575f5ffd5b5061039261038d366004613ac7565b610c6f565b604051901515815260200161036a565b3480156103ad575f5ffd5b506103b6610cc0565b005b3480156103c3575f5ffd5b506103cc610e50565b60405161036a9190613b10565b3480156103e4575f5ffd5b506103f86103f3366004613b22565b610ee0565b6040516001600160a01b03909116815260200161036a565b34801561041b575f5ffd5b506103b661042a366004613b54565b610f07565b34801561043a575f5ffd5b50610360600d5481565b34801561044f575f5ffd5b5061046361045e366004613b22565b610f16565b60405161036a9190613ba1565b34801561047b575f5ffd5b5061048f61048a366004613b22565b61104a565b6040805160ff9586168152949093166020850152918301521515606082015260800161036a565b6103606104c4366004613c50565b6111e4565b6103606104d7366004613c98565b6117a6565b3480156104e7575f5ffd5b506103606104f6366004613cd2565b601a6020525f908152604090205481565b348015610512575f5ffd5b50610526610521366004613cd2565b611d2e565b60405161036a93929190613ceb565b348015610540575f5ffd5b506103b661054f366004613d17565b611daf565b6103b6611dff565b348015610567575f5ffd5b506103b6610576366004613d91565b611e1f565b348015610586575f5ffd5b50600954600a54600b54600c5460408051948552602085019390935291830152606082015260800161036a565b3480156105be575f5ffd5b506103b66105cd366004613dba565b611e35565b3480156105dd575f5ffd5b50600f546105ee9063ffffffff1681565b60405163ffffffff909116815260200161036a565b34801561060e575f5ffd5b50610360600b5481565b348015610623575f5ffd5b50610392610632366004613b22565b60146020525f908152604090205460ff1681565b348015610651575f5ffd5b50610392610660366004613cd2565b60186020525f908152604090205460ff1681565b34801561067f575f5ffd5b506106eb61068e366004613b22565b60126020525f908152604090208054600182015460028301546003909301546001600160a01b0392831693919282169160ff600160a01b8204811692600160a81b8304821692600160b01b8104831692600160b81b909104169088565b604080516001600160a01b03998a1681526020810198909852959097169486019490945260ff92831660608601529082166080850152151560a08401521660c082015260e08101919091526101000161036a565b34801561074a575f5ffd5b506103b6610759366004613dba565b611ebe565b348015610769575f5ffd5b50610392610778366004613cd2565b60196020525f908152604090205460ff1681565b348015610797575f5ffd5b506103f86107a6366004613cd2565b60156020525f90815260409020546001600160a01b031681565b3480156107cb575f5ffd5b506103606107da366004613dd5565b601660209081525f928352604080842090915290825290205481565b348015610801575f5ffd5b50610852610810366004613cd2565b6001600160a01b038082165f908152601a6020908152604080832054601b835281842054601c8452828520546015909452919093205492939092169193509193565b604080519485526020850193909352918301526001600160a01b0316606082015260800161036a565b348015610886575f5ffd5b50610360600e5481565b34801561089b575f5ffd5b506103f86108aa366004613b22565b611ed8565b3480156108ba575f5ffd5b50610360600c5481565b3480156108cf575f5ffd5b506103b66108de366004613cd2565b611ee2565b3480156108ee575f5ffd5b506103606108fd366004613cd2565b611fac565b34801561090d575f5ffd5b5061039261091c366004613cd2565b60116020525f908152604090205460ff1681565b34801561093b575f5ffd5b506103b6611ff1565b34801561094f575f5ffd5b5061036061095e366004613cd2565b601b6020525f908152604090205481565b34801561097a575f5ffd5b505f546001600160a01b03166103f8565b348015610996575f5ffd5b506103b66109a5366004613cd2565b61209a565b3480156109b5575f5ffd5b506109c96109c4366004613cd2565b61218a565b60405161036a9190613e06565b3480156109e1575f5ffd5b506103cc6122c8565b3480156109f5575f5ffd5b50610360600a5481565b348015610a0a575f5ffd5b506002546103f8906001600160a01b031681565b348015610a29575f5ffd5b506103b6610a38366004613cd2565b6122d7565b348015610a48575f5ffd5b506103b6610a57366004613e55565b6123a8565b348015610a67575f5ffd5b50610ac7610a76366004613b22565b60136020525f9081526040902080546001820154600283015460058401546006909401546001600160a01b0393841694929382169260ff600160a01b90930483169281811692610100909204169087565b604080516001600160a01b03988916815260208101979097529490961693850193909352901515606084015260ff90811660808401521660a082015260c081019190915260e00161036a565b348015610b1e575f5ffd5b50600f54610b3590640100000000900461ffff1681565b60405161ffff909116815260200161036a565b348015610b53575f5ffd5b506103b6610b62366004613e9e565b6123b3565b348015610b72575f5ffd5b506103f8610b81366004613b22565b6123cb565b348015610b91575f5ffd5b506103cc610ba0366004613b22565b6123f3565b348015610bb0575f5ffd5b50610bb9612463565b60405161036a9190613f7b565b348015610bd1575f5ffd5b50610360610be0366004613cd2565b601c6020525f908152604090205481565b348015610bfc575f5ffd5b50610c10610c0b366004613b22565b6124c2565b6040805160ff9094168452602084019290925215159082015260600161036a565b348015610c3c575f5ffd5b50610392610c4b366004613dd5565b6125a8565b348015610c5b575f5ffd5b506103b6610c6a366004613cd2565b6125d5565b5f6001600160e01b031982166380ac58cd60e01b1480610c9f57506001600160e01b03198216635b5e139f60e01b145b80610cba57506301ffc9a760e01b6001600160e01b03198316145b92915050565b610cc86125e9565b5f5b601054811015610e37575f60108281548110610ce857610ce8613fbb565b5f9182526020808320909101543383526016825260408084206001600160a01b03909216808552919092529120549091508015610e2d57335f9081526016602090815260408083206001600160a01b0386168085529252822091909155610d7957604051339082156108fc029083905f818181858888f19350505050158015610d73573d5f5f3e3d5ffd5b50610de9565b60405163a9059cbb60e01b8152336004820152602481018290526001600160a01b0383169063a9059cbb906044016020604051808303815f875af1158015610dc3573d5f5f3e3d5ffd5b505050506040513d601f19601f82011682018060405250810190610de79190613fcf565b505b604080518281526001600160a01b038416602082015233917fca883818c88aa830f3c2341f709f4bdefddfe102dc029ef0c3dc096482aa3e38910160405180910390a25b5050600101610cca565b50610e4e60015f51602061422e5f395f51905f5255565b565b606060038054610e5f90613fea565b80601f0160208091040260200160405190810160405280929190818152602001828054610e8b90613fea565b8015610ed65780601f10610ead57610100808354040283529160200191610ed6565b820191905f5260205f20905b815481529060010190602001808311610eb957829003601f168201915b5050505050905090565b5f610eea82612604565b505f828152600760205260409020546001600160a01b0316610cba565b610f1282823361263c565b5050565b610f1e613948565b5f82815260136020908152604080832081516101208101835281546001600160a01b039081168252600183015494820194909452600282015493841681840152600160a01b90930460ff161515606080850191909152825190810192839052929390926080850192909160038086019290918390855b825461010083900a900460ff16815260206001928301818104948501949093039092029101808411610f9457505050928452505060408051606081019182905260209093019291506004840190600390825f855b825461010083900a900460ff16815260206001928301818104948501949093039092029101808411610fe857505050928452505050600582015460ff808216602084015261010090910416604082015260069091015460609091015292915050565b5f81815260136020908152604080832081516101208101835281546001600160a01b039081168252600183015494820194909452600282015493841681840152600160a01b90930460ff161515606080850191909152825190810192839052849384938493849390916080840191906003808501918288855b825461010083900a900460ff168152602060019283018181049485019490930390920291018084116110c357505050928452505060408051606081019182905260209093019291506004840190600390825f855b825461010083900a900460ff1681526020600192830181810494850194909303909202910180841161111757505050928452505050600582015460ff808216602084015261010090910416604082015260069091015460609091015280519091506001600160a01b03166111c25760405162461bcd60e51b815260206004820152600d60248201526c10995d081b9bdd08199bdd5b99609a1b60448201526064015b60405180910390fd5b60c081015160e082015161010090920151909791965094508415159350915050565b5f6111ed6125e9565b600a5482101580156112015750600b548211155b6112405760405162461bcd60e51b815260206004820152601060248201526f426574206f7574206f662072616e676560801b60448201526064016111b9565b6001600160a01b0383165f9081526011602052604090205460ff1661129d5760405162461bcd60e51b8152602060048201526013602482015272151bdad95b881b9bdd081cdd5c1c1bdc9d1959606a1b60448201526064016111b9565b8360ff16600214806112b257508360ff166005145b806112c057508360ff16600a145b6113015760405162461bcd60e51b815260206004820152601260248201527124b73b30b634b21036bab63a34b83634b2b960711b60448201526064016111b9565b6001600160a01b03831661135a578134146113555760405162461bcd60e51b8152602060048201526014602482015273125b98dbdc9c9958dd0811551208185b5bdd5b9d60621b60448201526064016111b9565b61140c565b6040516323b872dd60e01b8152336004820152306024820152604481018390526001600160a01b038416906323b872dd906064016020604051808303815f875af11580156113aa573d5f5f3e3d5ffd5b505050506040513d601f19601f820116820180604052508101906113ce9190613fcf565b61140c5760405162461bcd60e51b815260206004820152600f60248201526e151c985b9cd9995c8819985a5b1959608a1b60448201526064016111b9565b5f6127106009546127106114209190614022565b61142d60ff881686614035565b6114379190614035565b6114419190614060565b905080600c5410156114905760405162461bcd60e51b815260206004820152601860248201527714995dd85c99081c1bdbdb081a5b9cdd59999a58da595b9d60421b60448201526064016111b9565b6002546040805160c081018252600e548152600d54602080830191909152600f5461ffff6401000000008204168385015263ffffffff16606083015260016080830181905283519182019093529182526001600160a01b0390921691639b1c385e9160a082019061150090612649565b8152506040518263ffffffff1660e01b815260040161151f9190614073565b6020604051808303815f875af115801561153b573d5f5f3e3d5ffd5b505050506040513d601f19601f8201168201806040525081019061155f91906140cf565b60408051610100810182523380825260208083018881526001600160a01b038a811685870190815260ff808f16606088019081528e8216608089019081525f60a08a0181815260c08b0182815260e08c018381528e845260128b528d84209c518d54908a166001600160a01b0319909116178d55985160018d810191909155965160028d01805496519551935192518816600160b81b0260ff60b81b19931515600160b01b0260ff60b01b19958a16600160a81b029590951661ffff60a81b1997909916600160a01b026001600160a81b031990981692909a1691909117959095179390931694909417939093171693909317909255915160039095019490945560148252848420805460ff19169091179055908252601a905290812080549294509061168b836140e6565b9091555050335f9081526018602052604090205460ff1661172657335f818152601860205260409020805460ff191660011790556017546116cc91906126ba565b60175460405133917f226d2a645d7edd4fc8d019b3eae722231277e0665965dba0c711be16ef35ba9e916117099160018252602082015260400190565b60405180910390a260178054905f611720836140e6565b91905055505b6117313385856126d3565b604080518481526001600160a01b038616602082015260ff88811682840152871660608201529051339184917f0104d56dc572eada9c7596ea9d803103efac41389e197c1a9ca650b537269bd19181900360800190a35061179e60015f51602061422e5f395f51905f5255565b949350505050565b5f6117af6125e9565b600a5482101580156117c35750600b548211155b6118025760405162461bcd60e51b815260206004820152601060248201526f426574206f7574206f662072616e676560801b60448201526064016111b9565b6001600160a01b0383165f9081526011602052604090205460ff1661185f5760405162461bcd60e51b8152602060048201526013602482015272151bdad95b881b9bdd081cdd5c1c1bdc9d1959606a1b60448201526064016111b9565b6001600160a01b0383166118b8578134146118b35760405162461bcd60e51b8152602060048201526014602482015273125b98dbdc9c9958dd0811551208185b5bdd5b9d60621b60448201526064016111b9565b61196a565b6040516323b872dd60e01b8152336004820152306024820152604481018390526001600160a01b038416906323b872dd906064016020604051808303815f875af1158015611908573d5f5f3e3d5ffd5b505050506040513d601f19601f8201168201806040525081019061192c9190613fcf565b61196a5760405162461bcd60e51b815260206004820152600f60248201526e151c985b9cd9995c8819985a5b1959608a1b60448201526064016111b9565b5f61271060095461271061197e9190614022565b611989856002614035565b6119939190614035565b61199d9190614060565b905080600c5410156119ec5760405162461bcd60e51b815260206004820152601860248201527714995dd85c99081c1bdbdb081a5b9cdd59999a58da595b9d60421b60448201526064016111b9565b6002546040805160c081018252600e548152600d54602080830191909152600f5461ffff6401000000008204168385015263ffffffff16606083015260016080830181905283519182019093529182526001600160a01b0390921691639b1c385e9160a0820190611a5c90612649565b8152506040518263ffffffff1660e01b8152600401611a7b9190614073565b6020604051808303815f875af1158015611a97573d5f5f3e3d5ffd5b505050506040513d601f19601f82011682018060405250810190611abb91906140cf565b604080516101208101825233815260208082018781526001600160a01b038981168486019081525f606080870182815288518083018a52838152808801849052808a018490526080890190815289519283018a52838352828801849052828a0184905260a089019290925260c0880183905260e0880183905261010088018390528983526013909652969020855181549084166001600160a01b0319909116178155925160018401555160028301805494511515600160a01b026001600160a81b0319909516919092161792909217909155915192945091611ba390600380840191906139af565b5060a0820151611bb990600483019060036139af565b5060c082015160058201805460e085015160ff90811661010090810261ffff199093169190941617179055909101516006909101555f828152601460209081526040808320805460ff19169055338352601a9091528120805491611c1c836140e6565b9091555050335f9081526019602052604090205460ff16611cb757335f818152601960205260409020805460ff19166001179055601754611c5d91906126ba565b60175460405133917f226d2a645d7edd4fc8d019b3eae722231277e0665965dba0c711be16ef35ba9e91611c9a9160028252602082015260400190565b60405180910390a260178054905f611cb1836140e6565b91905055505b611cc23385856126d3565b604080518481526001600160a01b038616602082015260ff8716818301529051339184917f6937d2f82c68f12e2509b3b54f15d2f08164a0ab78b073af8517009b20935ea39181900360600190a350611d2760015f51602061422e5f395f51905f5255565b9392505050565b60605f806001600160a01b038416611d6757505060408051808201909152600381526208aa8960eb1b6020820152905060126001611da8565b5050506001600160a01b0381165f9081526011602090815260409182902054825180840190935260048352634d4f434b60e01b9183019190915260129060ff165b9193909250565b6002546001600160a01b03163314611def5760025460405163073e64fd60e21b81523360048201526001600160a01b0390911660248201526044016111b9565b611dfa838383612753565b505050565b611e076127ad565b34600c5f828254611e189190613a9f565b9091555050565b611e276127ad565b600992909255600a55600b55565b6001600160a01b038216611e5e57604051633250574960e11b81525f60048201526024016111b9565b5f611e6a8383336127ff565b9050836001600160a01b0316816001600160a01b031614611eb8576040516364283d7b60e01b81526001600160a01b03808616600483015260248201849052821660448201526064016111b9565b50505050565b611dfa83838360405180602001604052805f8152506123b3565b5f610cba82612604565b611eea6127ad565b6001600160a01b0381165f9081526011602052604090205460ff1615611f465760405162461bcd60e51b8152602060048201526011602482015270105b1c9958591e481cdd5c1c1bdc9d1959607a1b60448201526064016111b9565b6010805460018181019092557f1b6847dc741a1b0cd08d278845f9d819d87b734759afb55fe2de5cb82a9ae6720180546001600160a01b039093166001600160a01b0319909316831790555f91825260116020526040909120805460ff19169091179055565b5f6001600160a01b038216611fd6576040516322718ad960e21b81525f60048201526024016111b9565b506001600160a01b03165f9081526006602052604090205490565b6001546001600160a01b031633146120445760405162461bcd60e51b815260206004820152601660248201527526bab9ba10313290383937b837b9b2b21037bbb732b960511b60448201526064016111b9565b5f8054336001600160a01b0319808316821784556001805490911690556040516001600160a01b0390921692909183917f8be0079c531659141344cd1fd0a4f28419497f9722a3daafe3b4186f6b6457e091a350565b5f546001600160a01b031633148015906120bf57506002546001600160a01b03163314155b1561210f57336120d65f546001600160a01b031690565b60025460405163061db9c160e01b81526001600160a01b03938416600482015291831660248301529190911660448201526064016111b9565b6001600160a01b0381166121365760405163d92e233d60e01b815260040160405180910390fd5b600280546001600160a01b0319166001600160a01b0383169081179091556040519081527fd1a6a14209a385a964d036e404cb5cfb71f4000cdb03c9366292430787261be69060200160405180910390a150565b6001600160a01b0381165f908152601860205260408120546060919060ff16156121bc57806121b8816140e6565b9150505b6001600160a01b0383165f9081526019602052604090205460ff16156121ea57806121e6816140e6565b9150505b5f8167ffffffffffffffff81111561220457612204613e8a565b60405190808252806020026020018201604052801561222d578160200160208202803683370190505b506001600160a01b0385165f908152601860205260408120549192509060ff161561227f57600182828151811061226657612266613fbb565b60209081029190910101528061227b816140e6565b9150505b6001600160a01b0385165f9081526019602052604090205460ff16156122c05760028282815181106122b3576122b3613fbb565b6020026020010181815250505b509392505050565b606060048054610e5f90613fea565b335f908152601560205260409020546001600160a01b03161561232a5760405162461bcd60e51b815260206004820152600b60248201526a105b1c9958591e481cd95d60aa1b60448201526064016111b9565b336001600160a01b0382160361237a5760405162461bcd60e51b815260206004820152601560248201527421b0b73737ba103932b332b9103cb7bab939b2b63360591b60448201526064016111b9565b335f90815260156020526040902080546001600160a01b0319166001600160a01b0392909216919091179055565b610f123383836128f1565b6123be848484611e35565b611eb833858585856129b8565b601081815481106123da575f80fd5b5f918252602090912001546001600160a01b0316905081565b60606123fe82612604565b505f61241460408051602081019091525f815290565b90505f8151116124325760405180602001604052805f815250611d27565b8061243c84612ae0565b60405160200161244d929190614115565b6040516020818303038152906040529392505050565b60606010805480602002602001604051908101604052809291908181526020018280548015610ed657602002820191905f5260205f20905b81546001600160a01b0316815260019091019060200180831161249b575050505050905090565b5f81815260126020908152604080832081516101008101835281546001600160a01b0390811680835260018401549583019590955260028301549081169382019390935260ff600160a01b840481166060830152600160a81b840481166080830152600160b01b84048116151560a0830152600160b81b90930490921660c08301526003015460e0820152829182919061258e5760405162461bcd60e51b815260206004820152600d60248201526c10995d081b9bdd08199bdd5b99609a1b60448201526064016111b9565b60c081015160e09091015190959094508415159350915050565b6001600160a01b039182165f90815260086020908152604080832093909416825291909152205460ff1690565b6125dd6127ad565b6125e681612b6e565b50565b6125f1612c16565b60025f51602061422e5f395f51905f5255565b5f818152600560205260408120546001600160a01b031680610cba57604051637e27328960e01b8152600481018490526024016111b9565b611dfa8383836001612c45565b60607f92fd13387c7fe7befbc38d303d6468778fb9731bc4583f17d92989c6fcfdeaaa8260405160240161268291511515815260200190565b60408051601f198184030181529190526020810180516001600160e01b03166001600160e01b03199093169290921790915292915050565b610f12828260405180602001604052805f815250612d49565b6001600160a01b038084165f90815260156020526040902054168015611eb8575f612710612702846064614035565b61270c9190614060565b6001600160a01b038084165f908152601660209081526040808320938916835292905290812080549293508392909190612747908490613a9f565b90915550505050505050565b5f8381526014602052604090205460ff161561278b57611dfa8383835f81811061277f5761277f613fbb565b90506020020135612d60565b611dfa8383835f8181106127a1576127a1613fbb565b90506020020135613030565b5f546001600160a01b03163314610e4e5760405162461bcd60e51b815260206004820152601660248201527527b7363c9031b0b63630b1363290313c9037bbb732b960511b60448201526064016111b9565b5f828152600560205260408120546001600160a01b039081169083161561282b5761282b81848661353f565b6001600160a01b03811615612865576128465f855f5f612c45565b6001600160a01b0381165f90815260066020526040902080545f190190555b6001600160a01b03851615612893576001600160a01b0385165f908152600660205260409020805460010190555b5f8481526005602052604080822080546001600160a01b0319166001600160a01b0389811691821790925591518793918516917fddf252ad1be2c89b69c2b068fc378daa952ba7f163c4a11628f55a4df523b3ef91a4949350505050565b6001600160a01b03831661291a5760405163a9fbf51f60e01b81525f60048201526024016111b9565b6001600160a01b03821661294c57604051630b61174360e31b81526001600160a01b03831660048201526024016111b9565b6001600160a01b038381165f81815260086020908152604080832094871680845294825291829020805460ff191686151590811790915591519182527f17307eab39ab6107e8899845ad3d59bd9653f200f220920489ca2b5937696c31910160405180910390a3505050565b6001600160a01b0383163b15612ad957604051630a85bd0160e11b81526001600160a01b0384169063150b7a02906129fa908890889087908790600401614129565b6020604051808303815f875af1925050508015612a34575060408051601f3d908101601f19168201909252612a3191810190614165565b60015b612a9b573d808015612a61576040519150601f19603f3d011682016040523d82523d5f602084013e612a66565b606091505b5080515f03612a9357604051633250574960e11b81526001600160a01b03851660048201526024016111b9565b805160208201fd5b6001600160e01b03198116630a85bd0160e11b14612ad757604051633250574960e11b81526001600160a01b03851660048201526024016111b9565b505b5050505050565b60605f612aec836135a3565b60010190505f8167ffffffffffffffff811115612b0b57612b0b613e8a565b6040519080825280601f01601f191660200182016040528015612b35576020820181803683370190505b5090508181016020015b5f19016f181899199a1a9b1b9c1cb0b131b232b360811b600a86061a8153600a8504945084156122c057612b3f565b336001600160a01b03821603612bc65760405162461bcd60e51b815260206004820152601760248201527f43616e6e6f74207472616e7366657220746f2073656c6600000000000000000060448201526064016111b9565b600180546001600160a01b0319166001600160a01b038381169182179092555f8054604051929316917fed8889f560326eb138920d842192f0eb3dd22b4f139c87a2c57538e05bae12789190a350565b5f51602061422e5f395f51905f5254600203610e4e57604051633ee5aeb560e01b815260040160405180910390fd5b8080612c5957506001600160a01b03821615155b15612d1a575f612c6884612604565b90506001600160a01b03831615801590612c945750826001600160a01b0316816001600160a01b031614155b8015612ca75750612ca581846125a8565b155b15612cd05760405163a9fbf51f60e01b81526001600160a01b03841660048201526024016111b9565b8115612d185783856001600160a01b0316826001600160a01b03167f8c5be1e5ebec7d5bd14f71427d1e84f3dd0314c0f7b2291e5b200ac8c7c3b92560405160405180910390a45b505b50505f90815260076020526040902080546001600160a01b0319166001600160a01b0392909216919091179055565b612d53838361367a565b611dfa335f8585856129b8565b5f8281526012602052604090206002810154600160b01b900460ff1615612dbb5760405162461bcd60e51b815260206004820152600f60248201526e105b1c9958591e481cd95d1d1b1959608a1b60448201526064016111b9565b5f612dc7606484614180565b612dd2906001613a9f565b6002808401805460ff808516600160b81b0260ff60b81b1990921691909117918290559293505f92600160a81b9091041614612e2c576002830154600160a81b900460ff16600514612e2557605a612e2f565b6050612e2f565b60325b905060ff808216908316118015612fc6575f612710600954612710612e549190614022565b60028701546001880154612e7291600160a81b900460ff1690614035565b612e7c9190614035565b612e869190614060565b905080856003018190555080600c5f828254612ea29190614022565b909155505084546001600160a01b03165f908152601b60205260408120805491612ecb836140e6565b909155505084546001600160a01b03165f908152601c602052604081208054839290612ef8908490613a9f565b909155505060028501546001600160a01b0316612f4b5784546040516001600160a01b039091169082156108fc029083905f818181858888f19350505050158015612f45573d5f5f3e3d5ffd5b50612fc4565b6002850154855460405163a9059cbb60e01b81526001600160a01b0391821660048201526024810184905291169063a9059cbb906044016020604051808303815f875af1158015612f9e573d5f5f3e3d5ffd5b505050506040513d601f19601f82011682018060405250810190612fc29190613fcf565b505b505b60028401805460ff60b01b1916600160b01b17905560038401546040805160ff8616815260208101929092528215159082015286907f6201917a9188e772a99dc13b4e2cab38d55abfd5ade07cc1ed0f5b99613131c69060600160405180910390a2505050505050565b5f8281526013602052604090206002810154600160a01b900460ff161561308b5760405162461bcd60e51b815260206004820152600f60248201526e105b1c9958591e481cd95d1d1b1959608a1b60448201526064016111b9565b81613094613a3b565b5f805b60068260ff16101561313e575f6130af603486614180565b9050600160ff82161b82165f0361311257600160ff82161b91909117906130d7600d82614193565b6130e29060016141b4565b848460ff16600681106130f7576130f7613fbb565b60ff90921660209290920201528261310e816141cd565b9350505b604080516020810187905201604051602081830303815290604052805190602001205f1c945050613097565b60408051606081018252845160ff908116825260208087015182169083015285830151169181019190915261317990600387810191906139af565b50604080516060808201835285015160ff908116825260808601518116602083015260a086015116918101919091526131b890600487019060036139af565b5060408051606081019182905261320b91600388810191825f855b825461010083900a900460ff168152602060019283018181049485019490930390920291018084116131d357905050505050506136db565b60058601805460ff191660ff9283161790556040805160608101918290526004880180549093168152613257929091600390826001602086018084116131d357905050505050506136db565b60058601805460ff929092166101000261ff00199092169190911790556040805160608101918290525f916132c991906003808a01918286855b825461010083900a900460ff16815260206001928301818104948501949093039092029101808411613291579050505050505061375e565b60408051606081019182905260048901805460ff1682529293505f926133069260039082600160208601808411613291579050505050505061375e565b905063ffffffff808216908316818111911481156133d4575f6127106009546127106133329190614022565b60018c0154613342906002614035565b61334c9190614035565b6133569190614060565b9050808a6006018190555080600c5f8282546133729190614022565b909155505089546001600160a01b03165f908152601b6020526040812080549161339b836140e6565b909155505089546001600160a01b03165f908152601c6020526040812080548392906133c8908490613a9f565b909155506133e5915050565b80156133e557600189015460068a01555b6006890154156134c05760028901546001600160a01b031661344157885460068a01546040516001600160a01b039092169181156108fc0291905f818181858888f1935050505015801561343b573d5f5f3e3d5ffd5b506134c0565b6002890154895460068b015460405163a9059cbb60e01b81526001600160a01b039283166004820152602481019190915291169063a9059cbb906044016020604051808303815f875af115801561349a573d5f5f3e3d5ffd5b505050506040513d601f19601f820116820180604052508101906134be9190613fcf565b505b60028901805460ff60a01b1916600160a01b179055600589015460068a01546040805160ff8085168252610100909404909316602084015282015282151560608201528b907f7aecf4f6263166bcbe3a3d3e4d88d2436ba4db202000fefe414d444d26085c1d9060800160405180910390a25050505050505050505050565b61354a83838361385b565b611dfa576001600160a01b03831661357857604051637e27328960e01b8152600481018290526024016111b9565b60405163177e802f60e01b81526001600160a01b0383166004820152602481018290526044016111b9565b5f8072184f03e93ff9f4daa797ed6e38ed64bf6a1f0160401b83106135e15772184f03e93ff9f4daa797ed6e38ed64bf6a1f0160401b830492506040015b6d04ee2d6d415b85acef8100000000831061360d576d04ee2d6d415b85acef8100000000830492506020015b662386f26fc10000831061362b57662386f26fc10000830492506010015b6305f5e1008310613643576305f5e100830492506008015b612710831061365757612710830492506004015b60648310613669576064830492506002015b600a8310610cba5760010192915050565b6001600160a01b0382166136a357604051633250574960e11b81525f60048201526024016111b9565b5f6136af83835f6127ff565b90506001600160a01b03811615611dfa576040516339e3563760e11b81525f60048201526024016111b9565b5f5f6136e6836138bc565b6020810151815191925060ff918216911614801561371257506040810151602082015160ff9081169116145b156137205750600292915050565b6020810151815160ff9081169116148061374857506040810151602082015160ff9081169116145b156137565750600192915050565b505f92915050565b5f5f613769836138bc565b6020810151815191925060ff918216911614801561379557506040810151602082015160ff9081169116145b156137ac578051611d279060ff16620493e06141eb565b6020810151815160ff9182169116036137f457604081015160ff16815f5b60200201516137dd9060ff166064614207565b6137ea9062030d406141eb565b611d2791906141eb565b6040810151602082015160ff91821691160361381757805160ff168160016137ca565b8051602082015160ff9182169161383091166064614207565b60408301516138449060ff16612710614207565b61385190620186a06141eb565b6137ea91906141eb565b5f6001600160a01b0383161580159061179e5750826001600160a01b0316846001600160a01b03161480613894575061389484846125a8565b8061179e5750505f908152600760205260409020546001600160a01b03908116911614919050565b6138c4613a59565b6020820151825160ff918216911611156138ec57602082018051835160ff9081169092521682525b6040820151602083015160ff9182169116111561391c5760408201805160208401805160ff908116909352911690525b6020820151825160ff9182169116111561394457602082018051835160ff9081169092521682525b5090565b6040518061012001604052805f6001600160a01b031681526020015f81526020015f6001600160a01b031681526020015f15158152602001613988613a59565b8152602001613995613a59565b81525f602082018190526040820181905260609091015290565b600183019183908215613a2f579160200282015f5b83821115613a0157835183826101000a81548160ff021916908360ff16021790555092602001926001016020815f010492830192600103026139c4565b8015613a2d5782816101000a81549060ff02191690556001016020815f01049283019260010302613a01565b505b50613944929150613a77565b6040518060c001604052806006906020820280368337509192915050565b60405180606001604052806003906020820280368337509192915050565b5b80821115613944575f8155600101613a78565b634e487b7160e01b5f52601160045260245ffd5b80820180821115610cba57610cba613a8b565b6001600160e01b0319811681146125e6575f5ffd5b5f60208284031215613ad7575f5ffd5b8135611d2781613ab2565b5f81518084528060208401602086015e5f602082860101526020601f19601f83011685010191505092915050565b602081525f611d276020830184613ae2565b5f60208284031215613b32575f5ffd5b5035919050565b80356001600160a01b0381168114613b4f575f5ffd5b919050565b5f5f60408385031215613b65575f5ffd5b613b6e83613b39565b946020939093013593505050565b805f5b6003811015611eb857815160ff16845260209384019390910190600101613b7f565b81516001600160a01b03168152602080830151908201526040808301516101a0830191613bd8908401826001600160a01b03169052565b506060830151613bec606084018215159052565b506080830151613bff6080840182613b7c565b5060a0830151613c1260e0840182613b7c565b5060c083015160ff90811661014084015260e084015116610160830152610100909201516101809091015290565b803560ff81168114613b4f575f5ffd5b5f5f5f5f60808587031215613c63575f5ffd5b613c6c85613c40565b9350613c7a60208601613c40565b9250613c8860408601613b39565b9396929550929360600135925050565b5f5f5f60608486031215613caa575f5ffd5b613cb384613c40565b9250613cc160208501613b39565b929592945050506040919091013590565b5f60208284031215613ce2575f5ffd5b611d2782613b39565b606081525f613cfd6060830186613ae2565b60ff94909416602083015250901515604090910152919050565b5f5f5f60408486031215613d29575f5ffd5b83359250602084013567ffffffffffffffff811115613d46575f5ffd5b8401601f81018613613d56575f5ffd5b803567ffffffffffffffff811115613d6c575f5ffd5b8660208260051b8401011115613d80575f5ffd5b939660209190910195509293505050565b5f5f5f60608486031215613da3575f5ffd5b505081359360208301359350604090920135919050565b5f5f5f60608486031215613dcc575f5ffd5b613cb384613b39565b5f5f60408385031215613de6575f5ffd5b613def83613b39565b9150613dfd60208401613b39565b90509250929050565b602080825282518282018190525f918401906040840190835b81811015613e3d578351835260209384019390920191600101613e1f565b509095945050505050565b80151581146125e6575f5ffd5b5f5f60408385031215613e66575f5ffd5b613e6f83613b39565b91506020830135613e7f81613e48565b809150509250929050565b634e487b7160e01b5f52604160045260245ffd5b5f5f5f5f60808587031215613eb1575f5ffd5b613eba85613b39565b9350613ec860208601613b39565b925060408501359150606085013567ffffffffffffffff811115613eea575f5ffd5b8501601f81018713613efa575f5ffd5b803567ffffffffffffffff811115613f1457613f14613e8a565b604051601f8201601f19908116603f0116810167ffffffffffffffff81118282101715613f4357613f43613e8a565b604052818152828201602001891015613f5a575f5ffd5b816020840160208301375f6020838301015280935050505092959194509250565b602080825282518282018190525f918401906040840190835b81811015613e3d5783516001600160a01b0316835260209384019390920191600101613f94565b634e487b7160e01b5f52603260045260245ffd5b5f60208284031215613fdf575f5ffd5b8151611d2781613e48565b600181811c90821680613ffe57607f821691505b60208210810361401c57634e487b7160e01b5f52602260045260245ffd5b50919050565b81810381811115610cba57610cba613a8b565b8082028115828204841417610cba57610cba613a8b565b634e487b7160e01b5f52601260045260245ffd5b5f8261406e5761406e61404c565b500490565b60208152815160208201526020820151604082015261ffff604083015116606082015263ffffffff606083015116608082015263ffffffff60808301511660a08201525f60a083015160c08084015261179e60e0840182613ae2565b5f602082840312156140df575f5ffd5b5051919050565b5f600182016140f7576140f7613a8b565b5060010190565b5f81518060208401855e5f93019283525090919050565b5f61179e61412383866140fe565b846140fe565b6001600160a01b03858116825284166020820152604081018390526080606082018190525f9061415b90830184613ae2565b9695505050505050565b5f60208284031215614175575f5ffd5b8151611d2781613ab2565b5f8261418e5761418e61404c565b500690565b5f60ff8316806141a5576141a561404c565b8060ff84160691505092915050565b60ff8181168382160190811115610cba57610cba613a8b565b5f60ff821660ff81036141e2576141e2613a8b565b60010192915050565b63ffffffff8181168382160190811115610cba57610cba613a8b565b63ffffffff818116838216029081169081811461422657614226613a8b565b509291505056fe9b779b17422d0df92223018b32b4d1fa46e071723d6817e2486d003becc55f00a2646970667358221220014a81cede75cc2e7cb02d0377c50d0c6ede5a526aab16050b1dffa55917e34864736f6c634300081d0033","linkReferences":{}},"methodIdentifiers":{"acceptOwnership()":"79ba5097","addSupportedToken(address)":"6d69fcaf","approve(address,uint256)":"095ea7b3","balanceOf(address)":"70a08231","betDice(uint8,uint8,address,uint256)":"15cd8408","betPoker(uint8,address,uint256)":"17803c8b","callbackGasLimit()":"24f74697","claimReferralRewards()":"05eaab4b","diceBets(uint256)":"42258eca","fundRewardPool()":"20828339","getAchievements(address)":"8ef578f6","getApproved(uint256)":"081812fc","getDiceResult(uint256)":"e3f60a67","getFullPokerBet(uint256)":"0ceaa424","getGameConfig()":"22f19172","getPlayerStats(address)":"4fd66eae","getPokerResult(uint256)":"110e277d","getSupportedTokens()":"d3c7c2c7","getTokenInfo(address)":"1f69565f","hasDiceAchievement(address)":"3e6694f3","hasPokerAchievement(address)":"448c0a06","houseEdgeBps()":"00998421","isApprovedForAll(address,address)":"e985e9c5","isDiceRequest(uint256)":"33a1f55e","isTokenSupported(address)":"75151b63","keyHash()":"61728f39","maxBet()":"2e5b2168","minBet()":"9619367d","name()":"06fdde03","owner()":"8da5cb5b","ownerOf(uint256)":"6352211e","playerTotalBets(address)":"1936fd43","playerTotalPayout(address)":"e0b9cb48","playerWins(address)":"8b31fb89","pokerBets(uint256)":"a3dd4a22","rawFulfillRandomWords(uint256,uint256[])":"1fe543e3","referralRewards(address,address)":"4c63c518","referrers(address)":"4a3b68cc","requestConfirmations()":"b0fb162f","rewardPool()":"66666aa9","s_vrfCoordinator()":"9eccacf6","safeTransferFrom(address,address,uint256)":"42842e0e","safeTransferFrom(address,address,uint256,bytes)":"b88d4fde","setApprovalForAll(address,bool)":"a22cb465","setCoordinator(address)":"8ea98117","setGameConfig(uint256,uint256,uint256)":"20f5ab97","setReferrer(address)":"a18a7bfc","subscriptionId()":"09c1ba2e","supportedTokens(uint256)":"c6255626","supportsInterface(bytes4)":"01ffc9a7","symbol()":"95d89b41","tokenURI(uint256)":"c87b56dd","transferFrom(address,address,uint256)":"23b872dd","transferOwnership(address)":"f2fde38b"},"id":51}